{
  "contractName": "MyFirstContract",
  "abi": [
    {
      "inputs": [],
      "stateMutability": "nonpayable",
      "type": "constructor"
    },
    {
      "inputs": [
        {
          "internalType": "uint256",
          "name": "addAmount",
          "type": "uint256"
        }
      ],
      "name": "addFunds",
      "outputs": [
        {
          "internalType": "uint256",
          "name": "",
          "type": "uint256"
        }
      ],
      "stateMutability": "nonpayable",
      "type": "function"
    },
    {
      "inputs": [
        {
          "internalType": "uint256",
          "name": "subAmount",
          "type": "uint256"
        }
      ],
      "name": "subtractFunds",
      "outputs": [
        {
          "internalType": "uint256",
          "name": "",
          "type": "uint256"
        }
      ],
      "stateMutability": "nonpayable",
      "type": "function"
    },
    {
      "inputs": [],
      "name": "getFunds",
      "outputs": [
        {
          "internalType": "uint256",
          "name": "",
          "type": "uint256"
        }
      ],
      "stateMutability": "view",
      "type": "function",
      "constant": true
    }
  ],
  "bytecode": "0x608060405234801561000f575f80fd5b5060645f8190555061025e806100245f395ff3fe608060405234801561000f575f80fd5b506004361061003f575f3560e01c8063300a4996146100435780634d9b373514610073578063be99970514610091575b5f80fd5b61005d60048036038101906100589190610142565b6100c1565b60405161006a919061017c565b60405180910390f35b61007b6100e2565b604051610088919061017c565b60405180910390f35b6100ab60048036038101906100a69190610142565b6100ea565b6040516100b8919061017c565b60405180910390f35b5f815f808282546100d291906101c2565b925050819055505f549050919050565b5f8054905090565b5f815f808282546100fb91906101f5565b925050819055505f549050919050565b5f80fd5b5f819050919050565b6101218161010f565b811461012b575f80fd5b50565b5f8135905061013c81610118565b92915050565b5f602082840312156101575761015661010b565b5b5f6101648482850161012e565b91505092915050565b6101768161010f565b82525050565b5f60208201905061018f5f83018461016d565b92915050565b7f4e487b71000000000000000000000000000000000000000000000000000000005f52601160045260245ffd5b5f6101cc8261010f565b91506101d78361010f565b92508282039050818111156101ef576101ee610195565b5b92915050565b5f6101ff8261010f565b915061020a8361010f565b925082820190508082111561022257610221610195565b5b9291505056fea26469706673582212202bfb9e5dbd487e326eb6c5deef2417dac83e09c32f223931bf1e6025ef26105464736f6c63430008150033",
  "immutableReferences": {},
  "source": "// SPDX-License-Identifier: MIT\npragma solidity >=0.4.22 <0.9.0;\n\ncontract MyFirstContract {\n    uint bankAccount;\n\n    constructor() public {\n        bankAccount = 100;\n    }\n\n    function addFunds(uint addAmount) public returns (uint) {\n        bankAccount += addAmount;\n        return bankAccount;\n    }\n\n    function subtractFunds(uint subAmount) public returns (uint) {\n        bankAccount -= subAmount;\n        return bankAccount;\n    }\n\n    function getFunds() public view  returns(uint) {\n        return bankAccount;\n    }\n}\n",
  "sourcePath": "/home/atilla/code/deploy-your-first-smart-contract/deploy-your-first-smart-contract/contracts/MyFirstContract.sol",
  "compiler": {
    "name": "solc",
    "version": "0.8.21+commit.d9974bed.Emscripten.clang"
  },
  "schemaVersion": "3.4.16",
  "updatedAt": "2023-10-22T07:20:32.712Z",
  "networkType": "ethereum",
  "devdoc": {
    "kind": "dev",
    "methods": {},
    "version": 1
  },
  "userdoc": {
    "kind": "user",
    "methods": {},
    "version": 1
  }
}